:020000040800F2
:1000000030250020C10200081D0300081D03000860
:100010001D0300081D0300081D0300080000000068
:100020000000000000000000000000001D030008A8
:100030001D030008000000001D030008BD030008A8
:100040001D0300081D0300081D0300081D03000810
:100050001D0300081D030008D10400081D0300084B
:100060001D0300081D0300081D0300081D030008F0
:100070001D0300081D0300081D0300081D030008E0
:100080001D0300081D0300081D0300081D030008D0
:100090001D0300081D0300081D03000801050008DA
:1000A0001D0300081D0300081D0300081D030008B0
:1000B00079050008AD0500081D0300081D030008B0
:1000C0001D0300081D0300081D0300081D03000890
:1000D0001D0300081D0300081D0300081D03000880
:1000E0001D0300081D0300081D0300081D03000870
:1000F0001D0300081D0300081D0300081D03000860
:100100001D0300081D030008690600081D03000800
:100110001D0300081D0300081D0300081D0300083F
:100120001D0300081D0300081D0300081D0300082F
:100130001D0300081D0300081D0300081D0300081F
:100140001D0300081D0300081D0300081D0300080F
:100150001D0300081D0300081D0300081D030008FF
:100160001D0300081D0300081D0300081D030008EF
:100170001D0300081D0300081D0300081D030008DF
:100180001D0300081D03000880B485B000AF0346BE
:100190000A46FB711346BB710023FB60BB7903F079
:1001A00003039B000F2202FA03F3FB60154ABB799D
:1001B0009B08DBB2023352F82320FB68DB43114873
:1001C000B9798908C9B21A408B1C40F823200D4A1E
:1001D000BB799B08DBB2023352F82320F979BB7953
:1001E00003F003039B0001FA03F30648B979890879
:1001F000C9B21A438B1C40F8232000BF1437BD46F8
:1002000080BC70470038014080B483B000AF034623
:10021000FB71084B1B68074A23F004031360FB794A
:10022000DB08DAB2044B1A7000BF0C37BD4680BC45
:10023000704700BF10E000E06008002080B582B089
:1002400000AF0346FB8003E040F2E73000F00AF81D
:10025000FB885A1EFA80002BF6D100BF0837BD4636
:1002600080BD000080B485B000AF7860124B1B7871
:100270001946124A7B6803FB01F353600F4B0022BF
:100280009A600E4B01221A600C4B1B68FB60FB68E6
:1002900003F00103002B04D0FB6803F48033002B30
:1002A000F2D0064B00221A60044B00229A6000BF75
:1002B0001437BD4680BC70476008002010E000E0A5
:1002C00080B582B000AF104B7B60104B3B6007E005
:1002D0007A68131D7B603B68191D396012681A60CB
:1002E0003B680B4A9342F3D30A480B494FF0000294
:1002F0008842B8BF40F8042BFADB00F0C3FB00BF14
:100300000837BD4680BD00BFA76000080000002080
:1003100060080020600800202C1D002080B400AF81
:10032000FEE7000080B483B000AF03463960FB7184
:1003300097F90730002B0BDA3B68DAB20C49FB79EE
:1003400003F00F03043B1201D2B20B441A7609E00A
:100350003B68DAB2074997F907301201D2B20B4471
:1003600083F8002300BF0C37BD4680BC704700BF38
:1003700000ED00E000E100E080B582B000AF786001
:100380007B68B3F1807F01D3012311E07B6823F008
:100390007F43094A013B53600F214FF0FF30FFF7C5
:1003A000C1FF054B00229A60034B07221A6000230D
:1003B00018460837BD4680BD10E000E080B500AFAC
:1003C00001F09EFF00BF80BD80B590B000AF01215D
:1003D0004FF4001000F0C2FC1E4802F08FF9002319
:1003E0007B6040233B614FF48073BB624FF440332A
:1003F000FB624FF400637B61174BFB60174BBB60E4
:100400004FF48063FB610023BB614FF400633B62E8
:100410004FF400537B620023FB630023BB63002384
:100420003B6301237B633B1D19460A4802F038FAFF
:100430000121084802F08AFA01220221084804F04A
:1004400072FD0121064804F011FD00BF4037BD4692
:1004500080BD00BF88600240D40A00200C3C0040F0
:10046000003C004080B584B000AF0121082000F0BE
:10047000B1FC42F2CF03BB6040F6B733BB80002330
:10048000BB810023FB803B1D1946104805F0BEF8D8
:1004900000210E4805F031F932233B7000237B70B8
:1004A0000023BB700123FB703B46184605F030F873
:1004B0000121064805F08CF901220121034805F0CD
:1004C0003BF900BF1037BD4680BD00BF000C0040A7
:1004D00080B500AF012004F0E9FF0346002B09D0EE
:1004E000054B00221A700121044805F006F901208D
:1004F00005F000F800BF80BD00000020000C0040A7
:1005000080B500AF202004F0D1FF0346002B0AD0B5
:10051000174B05221A700121164805F0EEF820202D
:1005200004F0E8FF22E0802004F0C0FF0346002B27
:100530000AD00F4B07221A7001210E4805F0DDF892
:10054000802004F0D7FF11E04FF4807004F0AEFF7C
:100550000346002B0AD0064B08221A7001210548D9
:1005600005F0CBF84FF4807004F0C4FF00BF80BDED
:1005700000000020000C004080B500AF01214FF0CA
:10058000804005F0FCF80346002B0BD000F070F91A
:10059000054B1B88184600F0DFFE01214FF080401C
:1005A00005F016F900BF80BD6208002080B500AFDD
:1005B00001212A4805F0E3F80346002B4CD0284BD4
:1005C0001B7883F00103DBB2002B03D0244B012204
:1005D0001A7002E0224B00221A70214B1B7883F024
:1005E0000103DBB2002B33D01E4B1B790133DAB28F
:1005F0001C4B1A711B4B1B793A2B08D1194BDB781A
:100600000133DAB2174BDA70164B30221A71154BE0
:10061000DB78362B08D1134B5B780133DAB2114B00
:100620005A70104B3022DA700E4B5B783A2B08D19F
:100630000C4B1B780133DAB20A4B1A70094B30228B
:100640005A70084B1B783A2B02D1064B30221A7095
:100650000121024805F0BCF800BF80BD0004004045
:10066000650800200400002080B500AF01210F487C
:1006700005F085F80346002B16D00D4B93F900309A
:10068000002B02D10B4B01221A70094BFF221A706A
:100690000021064805F031F80021044805F020F853
:1006A0000121024805F094F800BF80BD000C004015
:1006B000000000206408002080B582B000AF012156
:1006C000012000F04BFB01233B6000233B71002322
:1006D000FB713B461946034801F040FE00BF083756
:1006E000BD4680BD0000024080B584B000AF062347
:1006F0003B7300237B730023BB730123FB7307F160
:100700000C03184604F004FF01237B6000233B72B6
:1007100008237B720123BB723B1D184604F054FE74
:1007200000210020FFF730FD17233B734FF4D073F7
:100730007B6007F10C03184604F0EAFE3B1D1846E7
:1007400004F042FE05210020FFF71EFD07210020D6
:10075000FFF71AFD08210020FFF716FD00BF103734
:10076000BD4680BD80B58CB000AF0121012000F0F6
:10077000F5FA01214FF4807000F04AFB0223BB62BE
:10078000032387F82C30002387F82F3007F1280344
:100790001946194801F0E2FD0023BB610023FB610B
:1007A00000233B6200237B6207F11803184600F028
:1007B000F1FE00233B6000233B7101237B7100238A
:1007C000FB600023BB6000233B6101233B753B467C
:1007D00019460A4800F08AFE042301220121074835
:1007E00000F01BFF0121054800F0FCFE00F008F8B6
:1007F00000BF3037BD4680BD0000024000200140F0
:1008000080B584B000AF0121012000F0E3FA40F68A
:100810003303BB6040F2CF73BB800023BB81002356
:10082000FB803B1D19464FF0804004F0EFFE012194
:100830004FF0804004F061FF1C233B7000237B706D
:100840000023BB700123FB703B46184604F060FE9A
:1008500001214FF0804004F0BBFF012201214FF045
:10086000804004F069FF00BF1037BD4680BD000026
:1008700080B500AF0A4800F099FF00BF0221084888
:1008800000F0AFFF0346002BF8D0054800F09DFFB5
:1008900003461B099AB2034B1A8000BF80BD00BFFC
:1008A000002001406208002080B584B000AFB9602C
:1008B0007B600346FB731346BB730023BB7305E0E9
:1008C000B969144802F05EF80346BB73BB7BDBB228
:1008D000002BF5D0BB685B000F4A99183B1D4FF405
:1008E00000620E4803F0D2FD0346FB73B969094864
:1008F00002F082F87B68B3F5006F04D3084B93F9DC
:100900000030002B01D0002300E0012318461037EF
:10091000BD4680BD88600240D40A0020AC0800209B
:100920006408002080B588B002AF78600B46FB7089
:100930007B687B617B690933012219462C4803F0EF
:1009400089FC0346FB70FB78002B4DD12C212848F5
:1009500003F06DFF0346FB70264B00221A70264BF6
:1009600030221A71244B1A79234BDA70224BDA7831
:10097000214B5A70204B5A781F4B1A701E4B3A224B
:100980009A701E4B00221A7001211D4804F0B5FE1A
:10099000FB7BDAB2F8781B4B00933B690021FFF731
:1009A00083FF034683F00103DBB2002B10D1FB7BF6
:1009B000DAB2F878144B00933B694FF48061FFF78B
:1009C00073FF034683F00103DBB2002B02D1DFE7A4
:1009D00000BF00E000BF0021094804F08EFE04487B
:1009E00003F006FF0346FB7000BF1837BD4680BD0D
:1009F000AC080020640800200400002065080020E6
:100A000000040040000400200008002084B080B4EE
:100A100083B000AF07F1100C8CE80F0000237B605F
:100A200000237B6023E007F119027B6813441B78E5
:100A30002E2B19D17B68013307F1100213445B7A26
:100A4000572B11D17B68023307F1100213445B7AF4
:100A5000412B09D17B68033307F1100213445B7A01
:100A6000562B01D1012306E07B6801337B607B6854
:100A7000092BD8DD002318460C37BD4680BC04B0D6
:100A80007047000090B59BB004AF01F071FD50209D
:100A9000FFF7BAFB00F00AFF6FF0040004F09AFDC4
:100AA0004D48FFF769FC00237B6500233B65002070
:100AB00001F004F901220121484803F087FB0346B5
:100AC00087F8473007F118034549184603F0DCFF63
:100AD000034687F847300023BB643A4607F1180302
:100AE0001146184604F030F8034687F8473097F867
:100AF0004730002B02D097F8473069E07B7A002B13
:100B000031D06A4607F1100393E8030082E803003E
:100B10003B460FCBFFF77AFF0346002BDDD0BB6CC3
:100B2000002B0FD16C4607F10C0393E8070084E813
:100B300007003B460ECB386D00F06CFE38653B6D10
:100B40007B650CE06C4607F10C0393E8070084E832
:100B500007003B460ECB386D00F05CFE3865BB6C81
:100B60000133BB64B9E700BF3B6D7A6D9A617B6D61
:100B70003A6DDA617B6DFB6400F0A4F900F05AFA7B
:100B80000121184804F091F9FFF71EFCFFF794FDCE
:100B9000FFF7E8FDFFF766FCFFF7A6FD0121402007
:100BA00000F0FAF8012004F0F3FB00233B6400237B
:100BB000FB6397F847301946F86CFFF7B3FE0A4B12
:100BC00093F90030002BF4DBFB6C9B69FB64F0E7CE
:100BD00018465C37BD4690BD905F0100D41A0020D6
:100BE00014600008003C00406408002080B483B01A
:100BF00000AF0346FB71044AFB79136000BF0C375A
:100C0000BD4680BC704700BF6800474280B489B0D1
:100C100000AF78600023BB6100237B610023FB6190
:100C200002233B610023FB600223BB60474B9B68B0
:100C300003F00C03BB61BB69042B07D0082B09D060
:100C4000002B3DD17B68424A1A603DE07B68414AF7
:100C50001A6039E03D4B5B689B0D03F00103FB60BC
:100C60003A4B5B6803F03F03BB60FB68002B0CD082
:100C7000384ABB68B2FBF3F3344A52689209C2F3B4
:100C8000080202FB03F3FB610BE0314ABB68B2FBD5
:100C9000F3F32E4A52689209C2F3080202FB03F3EF
:100CA000FB612A4B5B681B0C03F0030301335B0001
:100CB0003B61FA693B69B2FBF3F27B681A6003E0BF
:100CC0007B68234A1A6000BF204B9B6803F0F00347
:100CD000BB61BB691B09BB611F4ABB6913441B781D
:100CE000DBB27B617B681A687B69DA407B685A609B
:100CF000164B9B6803F4E053BB61BB699B0ABB6165
:100D0000154ABB6913441B78DBB27B617B685A6868
:100D10007B69DA407B689A600C4B9B6803F4604304
:100D2000BB61BB695B0BBB610B4ABB6913441B789E
:100D3000DBB27B617B685A687B69DA407B68DA608A
:100D400000BF2437BD4680BC704700BF003802405A
:100D50000024F40000127A000C00002080B483B05C
:100D600000AF78600B46FB70FB78002B06D0094B78
:100D70001A6B08497B6813430B6306E0054B1A6B3B
:100D80007B68DB43034913400B6300BF0C37BD4650
:100D900080BC70470038024080B483B000AF7860F8
:100DA0000B46FB70FB78002B06D0094B5A6B0849A9
:100DB0007B6813434B6306E0054B5A6B7B68DB4350
:100DC000034913404B6300BF0C37BD4680BC7047DE
:100DD0000038024080B483B000AF78600B46FB70EF
:100DE000FB78002B06D0094B1A6C08497B6813432B
:100DF0000B6406E0054B1A6C7B68DB430349134028
:100E00000B6400BF0C37BD4680BC70470038024001
:100E100080B483B000AF78600B46FB70FB78002B8A
:100E200006D0094B5A6C08497B6813434B6406E0B3
:100E3000054B5A6C7B68DB43034913404B6400BF8E
:100E40000C37BD4680BC70470038024080B483B088
:100E500000AF78600B46FB70FB78002B06D0094B87
:100E60001A6A08497B6813430B6206E0054B1A6A4D
:100E70007B68DB43034913400B6200BF0C37BD4660
:100E800080BC70470038024080B483B000AF786007
:100E90000B46FB70FB78002B06D0094B5A6A0849B9
:100EA0007B6813434B6206E0054B5A6A7B68DB4361
:100EB000034913404B6200BF0C37BD4680BC7047EE
:100EC0000038024080B58AB000AF07F12003184611
:100ED00001F0D1FA01210F20FFF740FF10233B6200
:100EE000012387F82430022387F82730002387F86E
:100EF0002630022387F8253007F12003194646489B
:100F000001F02CFA022387F82430012387F82630D9
:100F10004FF410733B62002387F82730022387F8D1
:100F2000253007F1200319463C4801F017FA042246
:100F300006213A4801F0D4FA04220921374801F089
:100F4000CFFA01214FF40210FFF744FF0120FFF711
:100F50004DFE002387F826304FF4A4533B6207F17F
:100F6000200319462E4801F0F9F910233B6207F1DE
:100F7000200319462B4801F0F1F9062204212948E3
:100F800001F0AEFA06220721254801F0A9FA06224F
:100F90000A21234801F0A4FA06220C21204801F07E
:100FA0009FFA10211C4801F08DFA1F4803F00CFE37
:100FB0004AF64443BB614FF40073FB820023BB82BB
:100FC0004FF400733B8200237B820023BB8307F135
:100FD00010031946144803F075FE144803F0C6FFC9
:100FE000134B3B600023BB8033233B814FF4806372
:100FF0007B814FF48043BB814BF6FF73FB80012163
:101000000A4804F0AFF83B461946084803F0E8FFE9
:1010100000BF2837BD4680BD000C024000040240DE
:101020000008024000000240003C00400054004024
:10103000A086010080B584B000AFFF23FB721021B1
:10104000544801F031FA544BFB6002E0FB68013B6D
:10105000FB60FB68002BF9D10D233B7101237B71F1
:101060003B1D0221184600F099F800233B7199239B
:101070007B713B1D0221184600F090F847233B711D
:1010800080237B713B1D0221184600F087F8322037
:1010900000F0E0F80346FB7232233B71FB7A63F009
:1010A0007F03DBB27B713B1D0221184600F076F80E
:1010B000322000F0CFF80346FB7232233B71FB7AFB
:1010C00003F07F03DBB27B713B1D0221184600F069
:1010D00065F800233B7100237B713B1D02211846FC
:1010E00000F05CF804233B71AF237B713B1D0221B0
:1010F000184600F053F80D233B7170237B713B1DA4
:101100000221184600F04AF805233B7181237B71C8
:101110003B1D0221184600F041F806233B710723CE
:101120007B713B1D0221184600F038F80A233B7101
:1011300000237B713B1D0221184600F02FF8272366
:101140003B7100237B713B1D0221184600F026F8FD
:101150009A233B710A237B710A23BB713B1D032138
:10116000184600F01BF81F233B710F237B713B1DBA
:101170000221184600F012F802233B719E237B7176
:101180003B1D0221184600F009F800BF1037BD468C
:1011900080BD00BF000C024040420F0080B584B00B
:1011A00000AF78600B46FB700023FB7300BF4FF469
:1011B0000031234804F0BAF80346002BF7D101218F
:1011C0001F4803F0EEFF00BF1E491D4804F0AEF8B3
:1011D0000346002BF8D000229421194804F01FF890
:1011E00000BF1949164804F072F80346002BF8D0E6
:1011F00012E0FB7B7A6813441B781946104804F010
:101200004AF8FB7B0133FB7300BF10490C4804F024
:101210005EF80346002BF8D0FA7BFB789A42E8D3BD
:1012200000BF0B49064804F081F80346002BF8D0B4
:101230000121034803F0D4FF00BF1037BD4680BD35
:1012400000540040010000108200070080000700E9
:101250000400001080B584B000AF0346FB7100238A
:10126000FB7300BF4FF40031354804F05FF80346CC
:10127000002BF7D10121324803F093FF00BF314921
:101280002F4804F053F80346002BF8D00022942195
:101290002B4803F0C4FF00BF2B49294804F017F87E
:1012A0000346002BF8D0FB791946254803F0F3FFDD
:1012B00000BF2649224804F00AF80346002BF8D064
:1012C00001211F4803F08CFF00BF4FF400311C4880
:1012D00004F02CF80346002BF7D10021184803F046
:1012E000BBFF0121164803F05CFF00BF15491448FD
:1012F00004F01CF80346002BF8D00122942110487A
:1013000003F08DFF00BF12490D4803F0E0FF0346D4
:10131000002BF8D000BF0F49094803F0D8FF03465F
:10132000002BF8D0064803F0C5FF0346FB730121EC
:10133000034803F055FFFB7B18461037BD4680BDC0
:1013400000540040010000108200070080000700E8
:10135000020003004000030080B582B000AF0346E6
:10136000FB71FB79E62B0CD9FB79E73B1946202072
:1013700000F018F8FB79E73B1946212000F012F83D
:101380000BE0FB7919331946202000F00BF8FB79AC
:1013900019331946212000F005F800BF0837BD4673
:1013A00080BD000080B584B000AF78603960002354
:1013B000FB60464B4FF496121A6009E0434B1B68E2
:1013C0005A1E42490A60002B02D100F08BF87AE0E5
:1013D0004FF400313E4803F0A9FF0346002BEDD146
:1013E00001213B4803F0DDFE384B4FF480521A6078
:1013F00009E0364B1B685A1E34490A60002B02D1A3
:1014000000F070F85FE03349314803F060FF0346B5
:10141000002BEED0002294212D4803F000FF2B4B2F
:101420004FF480521A6009E0284B1B685A1E274966
:101430000A60002B02D100F055F844E02649244808
:1014400003F045FF0346002BEED07B68DBB2194664
:101450001F4803F020FF1D4B4FF480521A6009E033
:101460001A4B1B685A1E19490A60002B02D100F062
:1014700039F828E01949164803F029FF0346002BE4
:10148000EED072B63B68DBB21946114803F003FF99
:101490000E4B4FF496121A6008E00C4B1B685A1E54
:1014A0000A490A60002B01D100F01CF80C490848D9
:1014B00003F03CFF0346002BEFD00121044803F06A
:1014C0008FFE62B600BF1037BD4680BD1C000020F5
:1014D0000054004001000300820007008000070064
:1014E0000400001080B400AFFEE7000080B485B0B7
:1014F00000AF786039600023FB600023FB727B68DB
:101500005B68FB60FB6823F0407323F48073FB602F
:101510003B681B791A023B681B681343FA68134344
:10152000FB607B68FA685A607B689B68FB60FA68BE
:10153000174B1340FB603B681A693B68DB681A4332
:101540003B689B681A433B685B795B001343FA680E
:101550001343FB607B68FA689A607B68DB6AFB6018
:10156000FB6823F47003FB603B681B7D013BDAB230
:10157000FB7A1343FB72FB7A1B05FA681343FB608B
:101580007B68FA68DA6200BF1437BD4680BC7047DA
:10159000FDF7FFC080B485B000AF78600023FB602A
:1015A0000E4B5B68FB60FA680D4B1340FB607B6879
:1015B0001A687B685B681A437B689B681A437B6880
:1015C000DB681343FA681343FB60044AFB6853600B
:1015D00000BF1437BD4680BC704700BF00230140E8
:1015E000E030FCFF80B483B000AF78600B46FB7046
:1015F000FB78002B06D07B689B6843F001027B6878
:101600009A6005E07B689B6823F001027B689A6022
:1016100000BF0C37BD4680BC704780B485B000AFBA
:101620007860084611461A460346FB700B46BB70AD
:1016300013467B700023FB600023BB60FB78092B03
:1016400023D97B68DB68FB60FB78A3F10A021346B1
:101650005B001344072202FA03F3BB60BB68DB4361
:10166000FA681340FB607978FB78A3F10A0213460D
:101670005B00134401FA03F3BB60FA68BB681343D1
:10168000FB607B68FA68DA601EE07B681B69FB60C0
:10169000FA7813465B001344072202FA03F3BB6097
:1016A000BB68DB43FA681340FB607978FA7813462D
:1016B0005B00134401FA03F3BB60FA68BB68134391
:1016C000FB607B68FA681A61BB78062B21D87B68BF
:1016D0005B6BFB60BB785A1E13469B0013441F22B2
:1016E00002FA03F3BB60BB68DB43FA681340FB609C
:1016F000F978BB785A1E13469B00134401FA03F392
:10170000BB60FA68BB681343FB607B68FA685A6386
:1017100047E0BB780C2B21D87B681B6BFB60BB7848
:10172000DA1F13469B0013441F2202FA03F3BB6027
:10173000BB68DB43FA681340FB60F978BB78DA1FBB
:1017400013469B00134401FA03F3BB60FA68BB68BD
:101750001343FB607B68FA681A6322E07B68DB6AEC
:10176000FB60BB78A3F10D0213469B0013441F22BC
:1017700002FA03F3BB60BB68DB43FA681340FB600B
:10178000F978BB78A3F10D0213469B00134401FACC
:1017900003F3BB60FA68BB681343FB607B68FA68BD
:1017A000DA6200BF1437BD4680BC704780B483B096
:1017B00000AF78607B689B6843F080427B689A60EA
:1017C00000BF0C37BD4680BC704780B483B000AF0B
:1017D00078607B68DB6C9BB218460C37BD4680BCDA
:1017E000704780B485B000AF78600B46FB70002373
:1017F000FB737B681A68FB781340002B02D001232F
:10180000FB7301E00023FB73FB7B18461437BD46D6
:1018100080BC704784B0B0B584B000AF786007F189
:10182000240080E80E00202003F0E2FF0346FB6066
:10183000FB681D4607F124040FCC0FC594E8030094
:1018400085E80300FB6800229A61FB687A68DA6128
:101850007B68002B02D07B68FA689A61FB681846A7
:101860001037BD46BDE8B04004B0704780B400AF4B
:10187000054B5B8B9BB2044A43F400639BB25383DA
:1018800000BFBD4680BC70470004024080B400AF7A
:10189000054B1B8B9BB2044A43F400639BB213833A
:1018A00000BFBD4680BC70470004024080B588B0D0
:1018B00000AF3A4B1B6B394A43F002031363374BBB
:1018C0001B6C364A43F48043136401214FF480407B
:1018D000FFF780FA01210220FFF740FA304B1B6826
:1018E0002F4A43F4800313602D4B9B682C4A43F42A
:1018F0004003936005220D21294800F0F1FD0522E7
:101900000E21274800F0ECFD05220F21244800F0AD
:10191000E7FD4FF46043BB6102233B7702237B77F3
:101920000123FB7707F1180319461D4800F016FD47
:101930000023BB804FF48273FB8000233B81022392
:101940007B810123BB814FF40073FB8108233B8221
:1019500000237B820723BB823B1D1946114803F0FD
:101960006DF900210F4803F0BFFA01210D4803F083
:101970007DFA0A4B1B6A094A43F4004313620A20AA
:10198000FEF75CFC054B1B6A044A23F40043136218
:10199000FFF77CFF00BF2037BD4680BD0038024006
:1019A000000402400038004080B485B000AF034618
:1019B000FB710023FB7300BF0D4B1B899BB203F02F
:1019C0000203002BF8D00A4BFA7992B29A8100BF39
:1019D000074B1B899BB203F00103002BF8D0044B8B
:1019E0009B899BB2FB7300BF1437BD4680BC704718
:1019F0000038004080B483B000AF0023BB7100BF4B
:101A0000124B1B899BB203F00203002BF8D00F4B43
:101A1000FF229A8100BF0D4B1B899BB203F001038B
:101A2000002BF8D00023FB7102E0FB790133FB713E
:101A3000FB79092BF9D9054B9B899BB2BB71BB790B
:101A400018460C37BD4680BC704700BF00380040C8
:101A500080B582B000AF7860FFF7CCFF03461A462E
:101A60007B681A7000BF0837BD4680BD80B582B064
:101A700000AF0B4B32221A70FFF7BCFFFFF7BAFF23
:101A80000346FB71FB79FF2B04D0054B1B78DBB2BF
:101A9000002BF3D1FB7918460837BD4680BD00BF47
:101AA0006708002080B582B000AFFFF7EFFE00238B
:101AB000FB7105E0FF20FFF777FFFB790133FB7136
:101AC000FB79092BF6D9034B01221A7000BF0837A6
:101AD000BD4680BD6908002080B400AF034B0022E2
:101AE0001A7000BFBD4680BC704700BF6908002067
:101AF00080B400AF024B1B781846BD4680BC7047CF
:101B00006908002080B584B000AF78603960174B59
:101B10000A221A70FFF76EFF0346FB73FB7BFF2B55
:101B200004D1124B1B78DBB2002BF3D1FB7BFE2BD5
:101B300001D0002316E07B685A1C7A601846FFF734
:101B400087FF7B685A1C7A601846FFF781FF3B6865
:101B5000023B3B603B68002BEDD1FFF74BFFFFF7EB
:101B600049FF012318461037BD4680BD6608002096
:101B700080B584B000AF78600B46FB700023BB607B
:101B8000FFF774FF0346FF2B01D0002340E0FB78F2
:101B90001846FFF709FFFB78FD2B31D00023BB73FC
:101BA0007B685A1C7A601B781846FFF7FDFE7B683D
:101BB0005A1C7A601B781846FFF7F6FEBB7B013B88
:101BC000BB73BB7B002BEBD1FFF714FFFFF712FFBA
:101BD0000BE0FFF70FFF0346FB73FB7B03F01F03D4
:101BE000052B06D0BB680133BB60BB68402BF0D926
:101BF00000E000BF00BFFFF7FDFE0346002BFAD058
:101C0000FB7B03F01F03052B01D1012300E0002320
:101C100018461037BD4680BD80B584B000AF03467E
:101C20003960FB71FFF722FF0346FF2B01D0FF2332
:101C300040E0FB791846FFF7B7FE3B681B0EDBB2AE
:101C40001846FFF7B1FE3B681B0CDBB21846FFF7E6
:101C5000ABFE3B681B0ADBB21846FFF7A5FE3B68EC
:101C6000DBB21846FFF7A0FE0023FB73FB79402B85
:101C700001D19523FB73FB79482B01D18723FB739B
:101C8000FB7B1846FFF790FEFB794C2B01D1FFF749
:101C9000B1FEE823FB73FFF7ADFE0346BB7397F974
:101CA0000E30002B05DAFB7B013BFB73FB7B002B2B
:101CB000F1D1BB7B18461037BD4680BD90B585B0CD
:101CC00000AF0346FB71FB79002B01D00123D5E067
:101CD0006C4B1B78DBB203F00203002B03D0694B83
:101CE0001B78DBB2CAE0FFF7DDFEFFF7BFFD002384
:101CF000BB7300214020FFF78FFF0346012B40F00C
:101D0000A580614B64221A704FF4D5714820FFF70B
:101D100083FF0346012B58D10023FB730CE0FC7BAF
:101D2000FFF768FE03461A4607F11003234403F841
:101D3000082CFB7B0133FB73FB7B032BEFD9BB7AB6
:101D4000012B40F08380FB7AAA2B7FD100217720E2
:101D5000FFF762FF0346012B07D84FF0804169204F
:101D6000FFF75AFF0346002B05D0474B1B78DBB229
:101D7000002BEBD100E000BF434B1B78DBB2002B04
:101D800064D000217A20FFF747FF0346002B5DD186
:101D90000023FB730CE0FC7BFFF72CFE03461A4686
:101DA00007F11003234403F8082CFB7B0133FB737A
:101DB000FB7B032BEFD93B7A03F04003002B01D0D0
:101DC000062300E00223BB7340E000217720FFF7E9
:101DD00023FF0346012B08D800216920FFF71CFFD1
:101DE0000346012B01D8022300E00123BB73BB7B18
:101DF000022B0ED100217720FFF70EFF0346012BA7
:101E00000ED800216920FFF707FF0346002B07D1FA
:101E10000DE000214120FFF7FFFE0346002B05D017
:101E2000194B1B78DBB2002BE1D100E000BF164B51
:101E30001B78DBB2002B07D04FF400715020FFF766
:101E4000EBFE0346002B01D00023BB730F4ABB7B84
:101E50001370FFF71BFDFFF7CDFDBB7B002B08D0F8
:101E6000084B1B78DBB223F00103DAB2054B1A7082
:101E700001E0FFF731FE034B1B78DBB21846143745
:101E8000BD4690BD200000206608002068080020A4
:101E900080B483B000AF0346FB71FB79002B01D007
:101EA000012302E0034B1B78DBB218460C37BD461A
:101EB00080BC70472000002080B584B000AFB960BE
:101EC0007A601A460346FB731346BB73FB7B002BF9
:101ED00002D1BB7B002B01D1042351E02A4B1B789C
:101EE000DBB203F00103002B01D0032348E0274BB2
:101EF0001B7803F00403002B02D17B685B027B603C
:101F0000FFF7B4FCBB7B012B11D179685120FFF79F
:101F100083FE0346002B29D14FF40071B868FFF708
:101F2000F1FD0346002B21D00023BB731EE079682E
:101F30005220FFF771FE0346002B17D14FF40071BA
:101F4000B868FFF7DFFD0346002B0AD0BB6803F536
:101F50000073BB60BB7B013BBB73BB7B002BEDD134
:101F600000E000BF00214C20FFF756FEFFF78EFC7B
:101F7000FFF740FDBB7B002B14BF01230023DBB226
:101F800018461037BD4680BD20000020680800209C
:101F900080B584B000AFB9607A601A460346FB731F
:101FA0001346BB73FB7B002B02D1BB7B002B01D103
:101FB00004236CE0384B1B78DBB203F00103002BE9
:101FC00001D0032363E0344B1B78DBB203F004033E
:101FD000002B01D002235AE0304B1B7803F004039E
:101FE000002B02D17B685B027B60FFF73FFCBB7B71
:101FF000012B10D179685820FFF70EFE0346002B05
:102000003BD1FE21B868FFF7B3FD0346002B34D067
:102010000023BB7331E0214B1B7803F00203002B3C
:1020200008D000217720FFF7F7FDBB7B194657202A
:10203000FFF7F2FD79685920FFF7EEFD0346002B0C
:102040001BD1FC21B868FFF793FD0346002B0AD093
:10205000BB6803F50073BB60BB7B013BBB73BB7B01
:10206000002BEED100E000BFFD210020FFF780FD36
:102070000346002B01D10123BB73FFF707FCFFF7D9
:10208000B9FCBB7B002B14BF01230023DBB2184635
:102090001037BD4680BD00BF20000020680800202A
:1020A00090B58BB000AF03463A60FB710B46BB7135
:1020B0003B683B62FB79002B01D0042319E101232B
:1020C00087F82730BB79052B27D13B6A1B78012B7A
:1020D0000ED0022B12D0002B1BD1FFF709FD0346B7
:1020E000002B01D0FFF7F8FC002387F82730FEE033
:1020F000FFF7D8FC002387F82730F8E0FFF7F8FC5B
:1021000002463B6A0133D2B21A70002387F82730A7
:10211000EDE0042387F82730E9E0784B1B78DBB249
:1021200003F00103002B01D00323E2E0FFF79EFB45
:10213000BB790D2B00F2CC8001A252F823F000BF36
:102140003B220008792100082B220008D122000838
:10215000D1220008D1220008D1220008D122000893
:10216000D1220008D1220008D12200084D22000807
:10217000712200089522000800214920FFF74CFD3C
:102180000346002B40F0A88007F10C0310211846ED
:10219000FFF7B8FC0346002B00F09E803B7B9B09B9
:1021A000DBB2012B0ED17B7D9AB23B7D9BB21B0231
:1021B0009BB213449BB20133FB83FB8B9A023B68B7
:1021C0001A602EE07B7C03F00F03DAB2BB7DDB09E3
:1021D000DBB21344DAB27B7D5B00DBB203F00603B3
:1021E000DBB21344DBB2023387F826303B7D9B0918
:1021F000DBB29AB2FB7C9BB29B009BB213449AB2B7
:10220000BB7C9B029BB203F440639BB213449BB222
:102210000133FB83FA8B97F82630093B9A403B68E1
:102220001A60002387F8273056E03B684FF40072AD
:102230001A80002387F8273055E0FFF717FC034684
:10224000FF2B4BD1002387F8273047E0002149209E
:10225000FFF7E2FC0346002B42D11021386AFFF75A
:1022600051FC0346002B3BD0002387F8273037E092
:1022700000214A20FFF7D0FC0346002B32D1102169
:10228000386AFFF73FFC0346002B2BD0002387F86A
:10229000273027E000217A20FFF7BEFC0346002B01
:1022A00016D1002387F826300BE03C6A631C3B62A2
:1022B000FFF7A0FB0346237097F82630013387F819
:1022C000263097F82630032BEFD9002387F82730E4
:1022D000042387F8273006E000BF04E000BF02E0D7
:1022E00000BF00E000BFFFF7D1FAFFF783FB97F8CC
:1022F000273018462C37BD4690BD00BF2000002077
:1023000080B483B000AF0E4B1B78FB71FB79002BC0
:1023100005D0FB79013BFB71094AFB791370094B2E
:102320001B78FB71FB79002B05D0FB79013BFB711E
:10233000044AFB79137000BF0C37BD4680BC704760
:10234000660800206708002080B400AF024B1846E2
:10235000BD4680BC704700BF0060614880B487B054
:1023600000AF7860396000237B6100233B6100236C
:10237000FB6000237B6176E001227B6902FA03F3B4
:102380003B613B681B683A691340FB60FA683B6934
:102390009A4265D17B681A687B695B00032101FA68
:1023A00003F3DB431A407B681A607B681A683B685A
:1023B0001B7919467B695B0001FA03F31A437B68BA
:1023C0001A603B681B79012B03D03B681B79022BF9
:1023D0002ED17B689A687B695B00032101FA03F3C5
:1023E000DB431A407B689A607B689A683B685B793C
:1023F00019467B695B0001FA03F31A437B689A6014
:102400007B685A687B699BB2194601238B40DB438A
:102410001A407B685A607B685B683A68927911461B
:102420007A6992B201FA02F292B21A437B685A6058
:102430007B68DA687B699BB25B00032101FA03F3D6
:10244000DB431A407B68DA607B68DA683B68DB79DB
:1024500019467B695B0001FA03F31A437B68DA6073
:102460007B6901337B617B690F2B85D900BF1C37EA
:10247000BD4680BC704780B483B000AF78607B6895
:102480004FF6FF721A607B6800221A717B68002287
:102490005A717B6800229A717B680022DA7100BF52
:1024A0000C37BD4680BC704780B483B000AF786005
:1024B0000B467B807B687A881A8300BF0C37BD4649
:1024C00080BC704780B483B000AF78600B467B80DF
:1024D0007B687A885A8300BF0C37BD4680BC704742
:1024E00080B485B000AF78600B467B8013467B706C
:1024F0000023FB600023BB607A787B8803F007032E
:102500009B0002FA03F3FB607B88DB089BB21A4650
:102510007B68083253F822207B8803F007039B0076
:102520000F2101FA03F3DB437988C90889B2084611
:1025300002EA03017B6800F1080243F822107B885D
:10254000DB089BB21A467B68083253F82230FA68DF
:102550001343BB607B88DB089BB21A467B6808325A
:10256000B96843F8221000BF1437BD4680BC7047DD
:1025700080B500AF124B1B68114A43F00103136092
:102580000F4B00229A600E4B1B680D4A23F0847398
:1025900023F4803313600A4B0A4A5A60084B1B68C5
:1025A000074A23F480231360054B0022DA6000F011
:1025B0000DF8054B4FF000629A6000BF80BD00BF70
:1025C000003802401030002400ED00E080B483B0F9
:1025D00000AF00237B6000233B60354B1B68344A0F
:1025E00043F480331360324B1B6803F400333B60C9
:1025F0007B6801337B603B68002B03D17B68B3F5BC
:10260000A06FF0D12A4B1B6803F40033002B02D0DB
:1026100001233B6001E000233B603B68012B42D17A
:10262000234B1B6C224A43F080531364214B1B68DD
:10263000204A43F4804313601D4B1D4A9B689360FE
:102640001B4B9B681A4A43F400439360184B9B68EA
:10265000174A43F4A0539360154B174A5A60144B22
:102660001B68134A43F08073136000BF104B1B6854
:1026700003F00073002BF9D0104B40F205621A6092
:102680000B4B9B680A4A23F003039360084B9B683B
:10269000074A43F00203936000BF054B9B6803F0B9
:1026A0000C03082BF9D100BF0C37BD4680BC704726
:1026B000003802400070004007544007003C0240D0
:1026C00080B485B000AF78600A4B1B68002B02D144
:1026D000084B094A1A60074B1B68FB60054B1A68D8
:1026E0007B681344034A1360FB6818461437BD46E1
:1026F00080BC70476C0800202C1D002080B483B083
:1027000000AF78607B681B6823F001027B681A6069
:102710007B6800221A607B6800225A607B68002276
:102720009A607B680022DA607B6800221A617B680D
:1027300021225A617B68454A934203D1444B3D2292
:102740009A607EE07B68434A934204D1404B4FF449
:1027500074629A6075E07B683F4A934204D13C4BB7
:102760004FF474129A606CE07B683C4A934204D147
:10277000374B4FF074629A6063E07B68384A93424B
:1027800003D1334B374ADA605BE07B68364A9342C9
:1027900003D12F4B354ADA6053E07B68344A9342C9
:1027A00003D12B4B334ADA604BE07B68324A9342C9
:1027B00004D1274B4FF03D52DA6042E07B682F4A4C
:1027C000934203D12E4B3D229A603AE07B682D4A1A
:1027D000934204D12A4B4FF474629A6031E07B68D3
:1027E000294A934204D1264B4FF474129A6028E090
:1027F0007B68264A934204D1214B4FF074629A6061
:102800001FE07B68224A934203D11D4B154ADA60D0
:1028100017E07B681F4A934203D1194B134ADA60D1
:102820000FE07B681C4A934203D1154B114ADA60D2
:1028300007E07B68194A934203D1114B4FF03D5298
:10284000DA6000BF0C37BD4680BC704710600240A4
:102850000060024028600240406002405860024030
:10286000706002403D00002088600240400F002060
:10287000A060024000003D20B860024010640240A9
:1028800000640240286402404064024058640240F0
:102890007064024088640240A0640240B864024050
:1028A00080B485B000AF786039600023FB607B683E
:1028B0001B68FB60FA68244B1340FB603B681A6896
:1028C0003B68DB681A433B685B691A433B689B695A
:1028D0001A433B68DB691A433B681B6A1A433B682F
:1028E0005B6A1A433B689B6A1A433B685B6B1A43FB
:1028F0003B689B6B1343FA681343FB607B68FA6881
:102900001A607B685B69FB60FB6823F00703FB6070
:102910003B68DA6A3B681B6B1343FA681343FB603E
:102920007B68FA685A613B681A697B685A603B6841
:102930005A687B689A603B689A687B68DA6000BF77
:102940001437BD4680BC70473F801CF080B483B014
:1029500000AF78600B46FB70FB78002B06D07B68DD
:102960001B6843F001027B681A6005E07B681B6806
:1029700023F001027B681A6000BF0C37BD4680BCA3
:102980007047000080B487B000AF786039600023E2
:10299000FB750023FB607B68144A934202D8144BFA
:1029A0003B6101E0134B3B613B6803F00053002B9C
:1029B00003D03B695B68FB6002E03B691B68FB601E
:1029C000FB6823F0F02323F08213FB60FA683B6876
:1029D0001340002B02D00123FB7501E00023FB759F
:1029E000FB7D18461C37BD4680BC70470F64024013
:1029F000006002400064024080B485B000AF78609F
:102A000039607B68104A934202D8104BFB6001E0AA
:102A10000F4BFB603B6803F00053002B07D03B6873
:102A200023F0F02323F08213FA68D36006E03B68BA
:102A300023F0F02323F08213FA68936000BF143769
:102A4000BD4680BC704700BF0F640240006002407A
:102A50000064024080B485B000AF78607B680133C9
:102A60001B78FB81FB891B021AB27B681B781BB2A7
:102A700013431BB2FB81FB8918461437BD4680BC4B
:102A8000704780B485B000AF78607B6803331B78F3
:102A9000FB60FB681B027A68023212781343FB600A
:102AA000FB681B027A68013212781343FB60FB68F3
:102AB0001B027A6812781343FB60FB6818461437D0
:102AC000BD4680BC704780B483B000AF78600B46D1
:102AD0007B807B685A1C7A607A88D2B21A707B88B5
:102AE0001B0A7B807B685A1C7A607A88D2B21A7083
:102AF00000BF0C37BD4680BC704780B483B000AFC8
:102B0000786039607B685A1C7A603A68D2B21A7071
:102B10003B681B0A3B607B685A1C7A603A68D2B2F9
:102B20001A703B681B0A3B607B685A1C7A603A68E3
:102B3000D2B21A703B681B0A3B607B685A1C7A60F1
:102B40003A68D2B21A7000BF0C37BD4680BC7047DD
:102B500080B487B000AFF860B9607A60FB687B61D1
:102B6000BB683B617B68002B0DD03A69531C3B610D
:102B70007B69591C796112781A707B68013B7B6014
:102B80007B68002BF1D100BF1C37BD4680BC70476D
:102B900080B487B000AFF860B9607A60FB687B6191
:102BA0007B695A1C7A61BA68D2B21A707B68013BA1
:102BB0007B607B68002BF3D100BF1C37BD4680BC17
:102BC000704780B489B000AFF860B9607A60FB6884
:102BD000FB61BB68BB6100237B61FB695A1CFA6126
:102BE0001B781946BB695A1CBA611B78CB1A7B61EA
:102BF0007B68013B7B607B68002B02D07B69002BEC
:102C0000EBD07B6918462437BD4680BC704780B442
:102C100083B000AF7860396002E07B6801337B608D
:102C20007B681B78002B05D07B681B781A463B68B5
:102C30009342F2D17B681B7818460C37BD4680BCA6
:102C4000704780B586B000AF78600023FB737B6867
:102C5000DB78002B34D07B68DB6A7B617B6858783B
:102C60007B6803F1300101237A69FFF791F903468C
:102C7000002B02D00123FB7322E07B680022DA7074
:102C80007B681B6A7A69D21A7B689B699A4217D261
:102C90007B689B783B6110E07B689B697A69134491
:102CA0007B617B6858787B6803F1300101237A6986
:102CB000FFF76EF93B69013B3B613B69012BEBD8A8
:102CC000FB7B18461837BD4680BD80B584B000AF89
:102CD000786039600023FB737B68DB6A3A689A424C
:102CE0001BD07868FFF7ADFF0346FB73FB7B002B1F
:102CF00013D17B6858787B6803F1300101233A686F
:102D0000FFF7DAF80346002B04D04FF0FF333B60A7
:102D10000123FB737B683A68DA62FB7B1846103745
:102D2000BD4680BD80B584B000AF78607868FFF79D
:102D300088FF0346FB73FB7B002B58D17B681B7815
:102D4000032B48D17B681B79012B44D17B6830333E
:102D50004FF4007200211846FFF71AFF7B683033EA
:102D600003F5FF734AF655211846FFF7ACFE7B6862
:102D7000303321491846FFF7C0FE7B68303303F536
:102D8000F2731E491846FFF7B8FE7B68303303F52F
:102D9000F4727B681B6919461046FFF7AEFE7B682C
:102DA000303303F5F6727B68DB6819461046FFF78F
:102DB000A4FE7B68DB695A1C7B68DA627B68587802
:102DC0007B6803F130017B68DA6A0123FFF7E0F8E2
:102DD0007B6800221A717B685B780022002118460C
:102DE000FFF75EF90346002B01D00123FB73FB7B49
:102DF00018461037BD4680BD525261417272416122
:102E000080B483B000AF786039603B68023B3B60C0
:102E10007B685B69023B3A689A4201D3002308E071
:102E20007B685B891A463B6803FB02F27B689B6AFE
:102E3000134418460C37BD4680BC704780B586B039
:102E400000AF786039607B681B683B613B68012B91
:102E500004D93B695B693A689A4202D301237B61DA
:102E60008AE04FF0FF337B613B691B78022B45D032
:102E7000032B5CD0012B75D13B68FB60FB685B08C2
:102E8000FA681344FB603B691A6AFB685B0A1344E7
:102E900019463869FFF719FF0346002B65D1FB6817
:102EA0005A1CFA60C3F308033A69134493F83030AC
:102EB000BB603B691A6AFB685B0A134419463869B0
:102EC000FFF703FF0346002B51D1FB68C3F3080350
:102ED0003A69134493F830301B021A46BB68134317
:102EE000BB603B6803F00103002B02D0BB681B09E9
:102EF00002E0BB68C3F30B037B613DE03B691A6AE8
:102F00003B681B0A134419463869FFF7DEFE034687
:102F1000002B2ED13B685B0003F4FF7330333A691A
:102F200013441846FFF796FD03467B6124E03B6996
:102F30001A6A3B68DB09134419463869FFF7C5FE76
:102F40000346002B17D13B689B0003F4FE7330331C
:102F50003A6913441846FFF794FD034623F0704383
:102F60007B6109E001237B6106E000BF04E000BF54
:102F700002E000BF00E000BF7B6918461837BD467D
:102F800080BD90B589B000AFF860B9607A60022367
:102F9000FB77BB68012B40F2D180FB685B69BA68A4
:102FA0009A4280F0CB80FB681B78022B71D0032BF8
:102FB00000F08E80012B40F0C180BB68BB61BB6913
:102FC0005B08BA691344BB61FB681A6ABB695B0A98
:102FD00013441946F868FFF778FE0346FB77FB7F3A
:102FE000002B40F0A480BB695A1CBA61C3F30803EC
:102FF0003033FA6813447B61BB6803F00103002B94
:103000000DD07B691B785BB203F00F035AB27B686B
:10301000DBB21B015BB213435BB2DBB201E07B6846
:10302000DBB27A691370FB680122DA70FB681A6AF6
:10303000BB695B0A13441946F868FFF746FE03466E
:10304000FB77FB7F002B74D1BB69C3F308033033DC
:10305000FA6813447B61BB6803F00103002B03D0C3
:103060007B681B09DBB20EE07B691B785BB223F047
:103070000F035AB27B681B0A5BB203F00F035BB20B
:1030800013435BB2DBB27A691370FB680122DA701A
:1030900054E0FB681A6ABB681B0A13441946F868B7
:1030A000FFF713FE0346FB77FB7F002B43D1BB6882
:1030B0005B0003F4FF733033FA6813447A6892B20A
:1030C00011461846FFF7FFFCFB680122DA7035E075
:1030D000FB681A6ABB68DB0913441946F868FFF7F6
:1030E000F4FD0346FB77FB7F002B26D17B6823F0A2
:1030F0007044BB689B0003F4FE733033FA681344DA
:103100001846FFF7BEFC034603F0704323437B6081
:10311000BB689B0003F4FE733033FA68134479688C
:103120001846FFF7EAFCFB680122DA7006E000BFF0
:1031300004E000BF02E000BF00E000BFFB7F1846D4
:103140002437BD4690BD80B588B000AFF860B96047
:103150007A600023FB77FB681B68BB61BB68012BAF
:1031600004D9BB695B69BA689A4201D3022349E07A
:103170007B68002B0CD04FF0FF327968B869FFF7FD
:1031800000FF0346FB77FB7F002B01D0FB7F39E07C
:10319000B968F868FFF752FE78617B69002B2FD081
:1031A0007B69012B01D102232CE07B69B3F1FF3F46
:1031B00001D1012326E00022B968B869FFF7E1FEDA
:1031C0000346FB77FB7F002B01D0FB7F1AE0BB6936
:1031D0001B69B3F1FF3F0BD0BB691B695A1CBB696C
:1031E0001A61BB691B7943F00103DAB2BB691A713A
:1031F0007B69BB60BB695B69BA689A42C8D300E06F
:1032000000BF002318462037BD4680BD80B588B07A
:1032100000AF786039607B681B683B613B68002BBE
:103220000DD13B69DB68BB61BB69002B04D03B69F6
:103230005B69BA699A421BD30123BB6118E0396804
:103240007868FFF7FBFDF860FB68012B01D80123CC
:1032500070E0FB68B3F1FF3F01D1FB686AE03B69B6
:103260005B69FA689A4201D2FB6863E03B68BB6124
:10327000BB69FB61FB690133FB613B695B69FA690F
:103280009A4207D30223FB61FA69BB699A4201D9CA
:1032900000234FE0F9697868FFF7D0FDF860FB681C
:1032A000002B0ED0FB68012B03D0FB68B3F1FF3F6E
:1032B00001D1FB683EE0FA69BB699A42DAD100238A
:1032C00038E000BF4FF0FF32F9693869FFF759FE67
:1032D0000346FB75FB7D002B09D13B68002B06D014
:1032E000FA6939683869FFF74CFE0346FB75FB7DC8
:1032F000002B16D13B69FA69DA603B691A693B69B0
:103300005B69023B9A4204D23B691B695A1E3B69C6
:103310001A613B691B7943F00103DAB23B691A7108
:1033200007E0FB7D012B02D14FF0FF3300E00123CA
:10333000FB61FB6918462037BD4680BD80B586B06D
:1033400000AF786039607B681B683B613B68B3F510
:10335000001F04D23B6803F01F03002B01D002239F
:1033600063E07B683A681A617B689B687B617B6974
:10337000002B06D13B691B78022B02D93B695B6AA3
:103380007B617B69002B0CD13B685B093A69128930
:10339000934201D3022348E03B695A6A7B689A61F1
:1033A00029E03B695B895B02FB6019E07B68796916
:1033B0001846FFF743FD78617B69B3F1FF3F01D108
:1033C000012332E07B69012B04D93B695B697A698F
:1033D0009A4201D3022328E03A68FB68D31A3B6083
:1033E0003A68FB689A42E1D279693869FFF708FDCB
:1033F00002467B689A617B687A695A617B689B693F
:10340000002B01D1022310E07B689A693B685B0ABC
:103410001A447B689A613B6903F130023B68C3F34D
:1034200008031A447B68DA61002318461837BD4642
:1034300080BD80B586B000AF786039607B681B685E
:10344000FB607B681B692033BB607B689B69002B3A
:1034500003D0BB68B3F5001F01D30423A9E0BB6808
:10346000C3F30803002B40F098807B689B695A1CCB
:103470007B689A617B685B69002B0BD1BB685B0939
:10348000FA6812899342C0F088807B6800229A61B2
:1034900004238EE0BB685B0AFA685289013A134044
:1034A000002B7AD17A687B685B6919461046FFF772
:1034B000C5FC78617B69012B01D8022379E07B6927
:1034C000B3F1FF3F01D1012373E0FB685B697A69C7
:1034D0009A4258D33B68002B04D17B6800229A6142
:1034E000042366E07A687B685B6919461046FFF73B
:1034F0008DFE78617B69002B01D1072359E07B6940
:10350000012B01D1022354E07B69B3F1FF3F01D1CC
:1035100001234EE0F868FFF794FB0346002B01D02F
:10352000012346E0FB6830334FF400720021184657
:10353000FFF72EFB00233B617969F868FFF760FC19
:103540000246FB68DA6212E0FB680122DA70F86872
:10355000FFF777FB0346002B01D0012329E03B69ED
:1035600001333B61FB68DB6A5A1CFB68DA62FB686B
:103570005B891A463B699342E6D3FB68DA6A3B698A
:10358000D21AFB68DA627B687A695A617969F868ED
:10359000FFF736FC02467B689A617B68BA681A615D
:1035A000BB68C3F308033033FA681A447B68DA61F6
:1035B000002318461837BD4680BD80B586B000AFE1
:1035C000786039607B681B68FB6000217868FFF7D2
:1035D000B5FE0346FB75FB7D002B2BD100233B6121
:1035E0007B689B691946F868FFF76FFB0346FB751C
:1035F000FB7D002B1DD17B68DB691B78E52B04D09C
:103600007B68DB691B78002B07D13B6901333B6189
:103610003A693B689A4202D10CE000233B610121E8
:103620007868FFF706FF0346FB75FB7D002BD7D0BC
:1036300000E000BFFB7D042B01D10723FB75FB7D60
:1036400018461837BD4680BD80B584B000AF78609D
:1036500039603B681A331846FFF7FCF90346FB60F4
:103660007B681B78032B09D13B6814331846FFF79E
:10367000F1F903461B04FA681343FB60FB68184624
:103680001037BD4680BD80B584B000AFF860B9602A
:103690007A60BB681A337A6892B211461846FFF70F
:1036A00012FAFB681B78032B09D1BB6803F11402E3
:1036B0007B681B0C9BB219461046FFF704FA00BF4B
:1036C0001037BD4680BD80B586B000AF78603960E8
:1036D0000423FB757B681B683B613CE07B689B694E
:1036E00019463869FFF7F1FA0346FB75FB7D002B9D
:1036F00036D17B68DB691B78FB73FB7B002B02D127
:103700000423FB7531E07B68DB690B331B7803F026
:103710003F03BB737B68BA7B9A71FB7BE52B11D0AF
:10372000FB7B2E2B0ED0BB7B0F2B0BD0BB7B23F058
:103730002003082B0CBF01230023DBB21A463B6891
:1037400093420FD000217868FFF773FE0346FB75A4
:10375000FB7D002B08D17B689B69002BBED104E068
:1037600000BF02E000BF00E000BFFB7D002B02D0E5
:103770007B6800229A61FB7D18461837BD4680BDE4
:1037800080B586B000AF78607B681B683B61002124
:103790007868FFF7D3FD0346FB75FB7D002B01D056
:1037A000FB7D3EE07B689B6919463869FFF78DFA1F
:1037B0000346FB75FB7D002B2FD17B68DB691B78F3
:1037C000FB73FB7B002B02D10423FB7528E07B6895
:1037D000DB690B331B7803F03F03DAB27B689A7125
:1037E0007B68DB690B331B7803F00803002B0AD1DD
:1037F0007B68D8697B681B6A0B221946FFF7E1F9E1
:103800000346002B0BD000217868FFF712FE034619
:10381000FB75FB7D002BC5D002E000BF00E000BFC0
:10382000FB7D18461837BD4680BD80B584B000AF1B
:1038300078607B681B68BB6001217868FFF7BDFE7C
:103840000346FB73FB7B002B1CD17B689B691946ED
:10385000B868FFF73AFA0346FB73FB7B002B11D1E4
:103860007B68DB69202200211846FFF791F97B680D
:10387000D8697B681B6A0B221946FFF769F9BB6898
:103880000122DA70FB7B18461037BD4680BD80B53B
:1038900086B000AF786039603B6800225A727B685E
:1038A0009B69002B52D000233B613B697B6121E087
:1038B0007B68DA697B69591C796113441B78FB7357
:1038C000FB7B202B00D115E0FB7B052B01D1E523F1
:1038D000FB737B69092B06D13B695A1C3A613A6834
:1038E00013442E225A723B695A1C3A613A681344B7
:1038F000FA7B5A727B690A2BDAD93A683B6913441E
:10390000093300221A707B68DB69DA7A3B681A7225
:103910007B68DB691C331846FFF7B3F802463B6847
:103920001A607B68DB6918331846FFF793F8034683
:103930001A463B689A807B68DB6916331846FFF7A6
:1039400089F803461A463B68DA8000E000BF183762
:10395000BD4680BD80B588B000AF786039603B68F7
:103960001B68FB607B681B6ABB600B222021B86868
:10397000FFF70EF90023FB7700233B613B697B6176
:103980000823BB617B695A1C7A61FA6813441B786F
:10399000BB77BB7F202B09D9BB7F2F2B06D0BB7FEA
:1039A0005C2B10D102E07B6901337B61FA687B6993
:1039B00013441B782F2BF6D0FA687B6913441B78CD
:1039C0005C2BF0D04DE0BB7F2E2B03D03A69BB6956
:1039D0009A420FD3BB69082B02D1BB7F2E2B01D09B
:1039E000062373E008233B610B23BB61FB7F9B0035
:1039F000FB7735E097F91E30002B08DAFB7F43F0A8
:103A00000303FB77BB7F803B324AD35CBB77BB7F32
:103A100019463148FFF7FBF80346002B01D0062377
:103A200054E0BB7F402B07D9BB7F5A2B04D8FB7FC8
:103A300043F00203FB770CE0BB7F602B09D9BB7F0F
:103A40007A2B06D8FB7F43F00103FB77BB7F203B3B
:103A5000BB773B695A1C3A61BA681344BA7F1A7043
:103A600090E7FA687B691A443B681A60BB7F202B99
:103A700001D8042300E00023BB773B69002B01D170
:103A8000062323E0BB681B78E52B02D1BB68052227
:103A90001A70BB69082B02D1FB7F9B00FB77FB7F71
:103AA00003F00303012B03D1BB7F43F01003BB776B
:103AB000FB7F03F00C03042B03D1BB7F43F008030F
:103AC000BB77BB680B33BA7F1A70002318462037C8
:103AD000BD4680BD186000089860000880B586B0BB
:103AE00000AF786039607B683B613B691B68FB60B5
:103AF00002E03B6801333B603B681B782F2BF8D01A
:103B00003B681B785C2BF4D03B6900229A603B68D1
:103B10001B781F2B0BD87B681B6A0B3380221A7013
:103B200000217868FFF70AFC0346FB7542E03B463C
:103B300019467868FFF70EFF0346FB75FB7D002BE7
:103B400033D17868FFF71CFE0346FB757B681B6A60
:103B5000DB7AFB72FB7D002B0AD0FB7D042B26D188
:103B6000FB7A03F00403002B21D10523FB751EE033
:103B7000FB7A03F00403002B1BD13B699B7903F014
:103B80001003002B02D10523FB7513E07B681B6932
:103B9000C3F308033033FA6813441946F868FFF793
:103BA00053FD02463B699A60C1E700BF02E000BFD7
:103BB00000E000BFFB7D18461837BD4680BD80B4CD
:103BC00087B000AF78604FF0FF333B617B681B68C4
:103BD000002B31D07B681B687B6102E07B6901337D
:103BE0007B617B691B78202B03D97B691B783A2B7F
:103BF000F4D17B691B783A2B1CD17B681B68FB6076
:103C0000FB685A1CFA601B78303BBB60BB68092B11
:103C10000ED8FA687B699A420AD1BB68002B07D19B
:103C2000BB683B617B6901337B617B687A691A60A1
:103C30003B6902E000233B613B6918461C37BD46E7
:103C400080BC704780B582B000AF786039607B6817
:103C50000022DA707B684FF0FF32DA6239687868E8
:103C6000FFF733F80346002B01D0042328E07B68DC
:103C700003F22E231846FEF7EDFE03461A464AF6D7
:103C800055239A4201D003231AE07B686633184615
:103C9000FEF7F7FE034623F07F430B4A934201D120
:103CA00000230DE07B6882331846FEF7EAFE0346E8
:103CB00023F07F43044A934201D1002300E0022312
:103CC00018460837BD4680BD4641540080B596B0C1
:103CD00000AFF860B9601346FB71BB6800221A6040
:103CE000F868FFF76CFFF863FB6B002B01DA0B231E
:103CF0002BE2A84AFB6B52F82330BB63BB6B002B53
:103D000001D10C2321E2BB68BA6B1A60FB7923F066
:103D10000103FB71BB6B1B78002B1AD0BB6B5B786C
:103D20001846FEF7B5F8034687F8373097F837306E
:103D300003F00103002B0CD1FB79002B07D097F87F
:103D4000373003F00403002B01D00A23FDE10023E8
:103D5000FBE1BB6B00221A70FB6BDAB2BB6B5A70D3
:103D6000BB6B5B781846FDF7A9FF034687F8373031
:103D700097F8373003F00103002B01D00323E4E16F
:103D8000FB79002B07D097F8373003F00403002BA2
:103D900001D00A23D9E100233B65396DB86BFFF7E9
:103DA00051FF034687F8573097F85730022B4BD115
:103DB00000233B641FE0BB6B03F130023B6C1B0133
:103DC00003F5DF7313443B633B6B04331B78002B19
:103DD00006D03B6B08331846FEF753FE024600E060
:103DE00000223B6C9B0007F158010B4443F8442C24
:103DF0003B6C01333B643B6C032BDCD900233B64FD
:103E00003B6C002B02D03B6C013B3B643B6C9B004A
:103E100007F15802134453F8443C3B653B6D002BBB
:103E200005D0396DB86BFFF70DFF034600E00323A3
:103E300087F8573097F85730012B05D93B6C013381
:103E40003B643B6C032BE1D997F85730042B01D12D
:103E500001237AE197F85730012B01D90D2374E142
:103E6000BB6B30330B331846FEF7F4FD0346B3F556
:103E7000007F01D00D2368E1BB6B30331633184649
:103E8000FEF7E8FD0346FB64FB6C002B06D1BB6B21
:103E9000303324331846FEF7F4FDF864BB6BFA6C3C
:103EA0009A61BB6B93F84020BB6B9A70BB6B9B789D
:103EB000012B05D0BB6B9B78022B01D00D2344E175
:103EC000BB6B9B781A46FB6C02FB03F3FB64BB6B7A
:103ED00093F83D309AB2BB6B5A81BB6B5B89002B68
:103EE00008D0BB6B5B891A46BB6B5B89013B1340F7
:103EF000002B01D00D2328E1BB6B30331133184662
:103F0000FEF7A8FD03461A46BB6B1A81BB6B1B89E3
:103F100003F00F039BB2002B01D00D2315E1BB6B07
:103F2000303313331846FEF795FD0346BB64BB6C74
:103F3000002B06D1BB6B303320331846FEF7A1FDB2
:103F4000B864BB6B30330E331846FEF783FD03466F
:103F5000FB85FB8D002B01D10D23F6E0FA8DFB6C68
:103F60001344BA6B1289120992B21344BB62BA6C41
:103F7000BB6A9A4201D20D23E7E0BA6CBB6AD31A3E
:103F8000BA6B5289B3FBF2F37B627B6A002B03D1DD
:103F90000D23DAE070080020012387F857307B6A90
:103FA00040F6F572934202D9022387F857307B6AB4
:103FB0004FF6F572934202D9032387F857307B6A94
:103FC0009A1CBB6B5A61BB6B3A6DDA61FA8D3B6D23
:103FD0001A44BB6B1A623A6DBB6A1A44BB6B9A6295
:103FE00097F85730032B1ED1BB6B30332A3318465A
:103FF000FEF730FD0346002B01D00D23A5E0BB6B7F
:104000001B89002B01D00D239FE0BB6B30332C3379
:104010001846FEF736FD0246BB6B5A62BB6B5B6906
:104020009B007B641FE0BB6B1B89002B01D10D2320
:104030008BE0BB6B1A6AFB6C1A44BB6B5A6297F835
:104040005730022B03D1BB6B5B695B000AE0BB6B93
:104050005A6913465B0013445A08BB6B5B6903F053
:10406000010313447B64BB6B9A697B6C03F2FF13FF
:104070005B0A9A4201D20D2367E0BB6B4FF0FF321F
:104080001A61BB6B1A69BB6BDA60BB6B80221A7159
:1040900097F85730032B49D1BB6B30333033184678
:1040A000FEF7D8FC0346012B40D13B6D0133194686
:1040B000B86BFEF70AFE0346002B37D1BB6B00221C
:1040C0001A71BB6B303303F5FF731846FEF7C2FC61
:1040D00003461A464AF655239A4227D1BB6B303322
:1040E0001846FEF7CEFC02461A4B9A421ED1BB6B15
:1040F000303303F5F2731846FEF7C3FC0246164B45
:104100009A4213D1BB6B303303F5F4731846FEF7B4
:10411000B8FC0246BB6B1A61BB6B303303F5F67318
:104120001846FEF7AEFC0246BB6BDA60BB6B97F835
:1041300057201A70094B1B8801339AB2074B1A801B
:10414000064B1A88BB6BDA80002318465837BD46E9
:1041500080BD00BF525261417272416174080020FB
:1041600080B584B000AF786039607B68BB607B68E5
:10417000002B1AD0BB681B68002B16D0BB681B68CD
:104180001B78002B11D0BB681B68DA88BB689B8842
:104190009A420AD1BB681B685B781846FDF778FE27
:1041A000034603F00103002B05D03B6800221A6090
:1041B0000923FB7305E0BB681A683B681A6000239B
:1041C000FB73FB7B18461037BD4680BD80B588B0B9
:1041D00000AFF860B9601346FB71BB683B6107F143
:1041E00010031846FFF7EBFCF861FB69002B01DABE
:1041F0000B2328E0164AFB6952F82330BB61BB69E8
:10420000002B02D0BB6900221A70FB68002B02D081
:10421000FB6800221A70FA680D49FB6941F82320F7
:10422000FB68002B02D0FB79012B01D000230AE0B0
:1042300007F10C0107F1080300221846FFF746FDBD
:104240000346FB75FB7D18462037BD4680BD00BF89
:104250007008002080B594B000AFF860B9601346D4
:10426000FB71FB68002B01D109230BE1FB680022E5
:104270001A60FB7903F01F03FB71FA7907F11C0147
:1042800007F108031846FFF721FD034687F84F3072
:1042900097F84F30002B40F0F380FB693B6207F149
:1042A00010033B64BA6807F1200311461846FFF774
:1042B00015FC034687F84F3097F84F30002B08D194
:1042C0003B6C0B331B785BB2002B02DA062387F8BA
:1042D0004F30FB7903F01C03002B79D097F84F3057
:1042E000002B10D097F84F30042B07D107F1200393
:1042F0001846FFF79AFA034687F84F30FB7943F0E8
:104300000803FB7111E097F8263003F01103002B2E
:1043100003D0072387F84F3007E0FB7903F004034D
:10432000002B02D0082387F84F3097F84F30002B2E
:104330006AD1FB7903F00803002B65D0FEF704F87F
:10434000B864FB6B0E33B96C1846FEF7D6FBFB6BFB
:104350001633B96C1846FEF7D0FBFB6B0B332022EB
:104360001A70FB69FA6B11461846FFF76DF978640D
:10437000FB69F96B00221846FFF785F9FB6B1C33CC
:1043800000211846FEF7B9FBFB690122DA707B6C4D
:10439000002B39D0FB69DB6ABB6407F120030022E4
:1043A000796C1846FEF7CFFE034687F84F3097F832
:1043B0004F30002B28D1FB69B96C1846FEF785FCFD
:1043C000034687F84F30FB697A6C013ADA601BE0EC
:1043D00097F84F30002B17D197F8263003F01003D1
:1043E000002B03D0042387F84F300DE0FB7903F056
:1043F0000203002B08D097F8263003F00103002BAE
:1044000002D0072387F84F3097F84F30002B0FD199
:10441000FB7903F00803002B03D0FB7943F0200362
:10442000FB71FB69DA6AFB681A62FA6BFB685A6215
:1044300097F84F30002B23D1FB69FA6B11461846D1
:10444000FFF702F90246FB689A60FB6B1C331846C3
:10445000FEF717FB0246FB68DA60FB6800225A741D
:10446000FB6800225A61FB680022DA61FB68FA7976
:104470001A74FA69FB681A60FB69DA88FB689A802B
:1044800097F84F3018465037BD4680BD80B58EB086
:1044900000AFF860B9607A603B60BB687B623B68E4
:1044A00000221A6007F114031946F868FFF758FE56
:1044B000034687F8373097F83730002B07D1FB6871
:1044C0005B7C87F8373097F83730002B02D097F8AD
:1044D00037300BE1FB681B7C03F00103002B01D19B
:1044E000072303E1FB68DA68FB685B69D31A3B6268
:1044F0007A683B6A9A4240F2F4803B6A7B60F0E063
:10450000FB685B69C3F30803002B40F0BD80FB68C8
:104510005B695B0A7A695289013A1340FB61FB6966
:10452000002B23D1FB685B69002B03D1FB689B68E0
:104530003B6307E0FA68FB689B6919461046FEF783
:104540007DFC38633B6B012B04D8FB6802225A7454
:104550000223CBE03B6BB3F1FF3F04D1FB680122A8
:104560005A740123C2E0FB683A6B9A617A69FB686E
:104570009B6919461046FEF743FCB861BB69002BE6
:1045800004D1FB6802225A740223AFE0BA69FB69C6
:104590001344BB617B685B0ABB62BB6A002B3BD0E8
:1045A000FA69BB6A13447A695289934205D97B69D7
:1045B0005B891A46FB69D31ABB627B695878BB6A70
:1045C000DBB2BA69796AFDF777FC0346002B04D0A9
:1045D000FB6801225A74012388E0FB681B7C03F00E
:1045E0004003002B14D0FB68DA69BB69D31ABA6A9E
:1045F0009A420DD9FB68DA69BB69D31A5B027A6A01
:10460000D018FB6828334FF400721946FEF7A0FA61
:10461000BB6A5B02FB6250E0FB68DB69BA699A42E5
:104620002FD0FB681B7C03F04003002B18D07B6964
:104630005878FB6803F12801FB68DA690123FDF76C
:10464000A7FC0346002B04D0FB6801225A74012307
:104650004CE0FB681B7C23F04003DAB2FB681A7461
:104660007B695878FB6803F128010123BA69FDF7DB
:1046700023FC0346002B04D0FB6801225A7401235B
:1046800034E0FB68BA69DA61FB685B69C3F308036D
:10469000C3F50073FB62FA6A7B689A4201D97B68B2
:1046A000FB62FB685B69C3F308032833FA681344B1
:1046B000FA6A1946786AFEF74BFA7A6AFB6A13447B
:1046C0007B62FB685A69FB6A1A44FB685A613B6863
:1046D0001A68FB6A1A443B681A607A68FB6AD31A44
:1046E0007B607B68002B7FF40BAF002318463837C4
:1046F000BD4680BD80B586B000AF786007F1080385
:1047000019467868FFF72CFD0346FB75FB7D002BEF
:1047100069D17B681B7C03F02003002B63D07B688E
:104720001B7C03F04003002B15D0BB6858787B68D6
:1047300003F128017B68DA690123FDF729FC0346B0
:10474000002B01D001234FE07B681B7C23F040034A
:10475000DAB27B681A74FDF7F7FD3861BA687B68D6
:104760001B6A19461046FEF7B0FA0346FB75FB7D3F
:10477000002B38D17B685B6AFB60FB680B331A78CF
:10478000FB680B3342F02002D2B21A707B681868C3
:104790007B689B681A46F968FEF775FFFB6803F1B2
:1047A0001C027B68DB6819461046FEF7A6F9FB6819
:1047B000163339691846FEF7A0F9FB681233002159
:1047C0001846FEF780F9BB680122DA70BB6818460C
:1047D000FEF7A8FA0346FB757B681B7C23F02003D9
:1047E000DAB27B681A74FB7D18461837BD4680BD67
:1047F00080B584B000AF78607868FFF77BFF034630
:10480000FB73FB7B002B0DD107F108031946786879
:10481000FFF7A6FC0346FB73FB7B002B02D17B68F2
:1048200000221A60FB7B18461037BD4680BD80B55C
:1048300088B000AF7860396007F1080319467868DE
:10484000FFF78EFC0346FB77FB7F002B05D17B68CF
:104850005B7CFB77FB7F002B01D0FB7F10E17B684B
:10486000DB683A689A4208D97B681B7C03F0020334
:10487000002B02D17B68DB683B607B685B693B6136
:1048800000237B617B687A695A613B68002B00F0EA
:10489000A780BB685B895B02FB603B69002B1BD078
:1048A0003B685A1EFB68B2FBF3F23B69591EFB687A
:1048B000B1FBF3F39A420FD33B695A1EFB685B428C
:1048C0001A407B685A617B685B693A68D31A3B601F
:1048D0007B689B69BB6122E07B689B68BB61BB69AD
:1048E000002B19D17B6800211846FEF78FFCB861B8
:1048F000BB69012B04D17B6802225A740223BFE0FA
:10490000BB69B3F1FF3F04D17B6801225A740123D4
:10491000B6E07B68BA699A607B68BA699A61BB69DC
:10492000002B5DD03AE07B681B7C03F00203002B78
:104930000BD07B68B9691846FEF768FCB861BB69A3
:10494000002B08D1FB683B602CE07B68B9691846F6
:10495000FEF774FAB861BB69B3F1FF3F04D17B681D
:1049600001225A7401238BE0BB69012B04D9BB6877
:104970005B69BA699A4204D37B6802225A740223A3
:104980007EE07B68BA699A617B685A69FB681A4461
:104990007B685A613A68FB68D31A3B603A68FB68E7
:1049A0009A42C0D87B685A693B681A447B685A614E
:1049B0003B68C3F30803002B12D0BB68B9691846E3
:1049C000FEF71EFA78617B69002B04D17B68022216
:1049D0005A74022354E03B685B0A7A6913447B6192
:1049E0007B685B69C3F30803002B37D07B68DB6906
:1049F0007A699A4232D07B681B7C03F04003002B1B
:104A000018D0BB6858787B6803F128017B68DA69A5
:104A10000123FDF7BDFA0346002B04D07B68012279
:104A20005A7401232CE07B681B7C23F04003DAB22C
:104A30007B681A74BB6858787B6803F128010123EE
:104A40007A69FDF739FA0346002B04D07B6801220E
:104A50005A74012314E07B687A69DA617B685A69C9
:104A60007B68DB689A420AD97B685A697B68DA609E
:104A70007B681B7C43F02003DAB27B681A74FB7FEF
:104A800018462037BD4680BD80B588B000AF78603D
:104A900039607B68002B01D1092351E07B68BB6141
:104AA00007F114013B4600221846FFF70FF90346B1
:104AB000FB77FB7F002B3CD17A69BB691A607B686E
:104AC00007F108021A623B6819467868FFF706F892
:104AD0000346FB77FB7F002B26D17B681B6A0B33D9
:104AE0001B785BB2002B12DBBB699B7903F01003D0
:104AF000002B0AD07A697B68DB6919461046FEF7FD
:104B0000A3FD0246BB699A6001E00523FB77FB7FAA
:104B1000002B09D17B69DA88BB699A80002178680B
:104B2000FEF70CFC0346FB77FB7F042B01D105232A
:104B3000FB77FB7F002B02D0BB6900221A60FB7F52
:104B400018462037BD4680BD80B588B000AF78607C
:104B5000396007F1180319467868FFF701FB03462F
:104B6000FB77FB7F002B2AD13B68002B06D100216D
:104B70007868FEF7E3FB0346FB7720E07B6807F1EC
:104B80000C021A6200217868FEF79DFD0346FB7750
:104B9000FB7F042B01D10023FB77FB7F002B0ED181
:104BA00039687868FEF773FE00217868FEF741FCEB
:104BB0000346FB77FB7F042B01D10023FB77FB7FB0
:104BC00018462037BD4680BD80B582B000AF786002
:104BD0007B68174A93420AD101214FF48050FCF7B9
:104BE00053F900214FF48050FCF74EF91CE07B682C
:104BF000104A93420AD101214FF48040FCF726F974
:104C000000214FF48040FCF721F90DE07B680A4A4F
:104C1000934209D101214FF40040FCF717F900211C
:104C20004FF40040FCF712F900BF0837BD4680BDC5
:104C30000030014000380040003C004080B485B0A6
:104C400000AF786039600023FB817B681B88FB81A3
:104C5000FB8903F44153FB813B681A883B685B88FE
:104C600013439AB23B689B8813439AB23B68DB8834
:104C700013439AB23B681B8913439AB23B685B8922
:104C800013439AB23B689B8913439AB23B68DB8912
:104C900013439AB2FB891343FB817B68FA891A801C
:104CA0007B689B8B9BB223F400639AB27B689A83E8
:104CB0003B681A8A7B681A8200BF1437BD4680BCE5
:104CC0007047000080B48BB000AF7860396000237B
:104CD0007B830223FB840023BB8401237B8400238A
:104CE000FB6100237B6100233B610023FB60002309
:104CF000BB607B689B8B9BB223F47B6323F00F0329
:104D00009AB27B689A837B6802221A847B689B8BA9
:104D10007B833B689B68022B04D10023BB84022366
:104D2000FB846DE03B689B88002B02D101237B84D0
:104D300001E002237B844A4B9B6803F40003002BB1
:104D400005D0474B9B68464A23F400039360444BCD
:104D5000D3F884309B09C3F30803FB60404BD3F8BE
:104D600084301B0F03F00703BB603D4B5B6803F00F
:104D70003F033B613B4A3B69B2FBF3F3FA6802FB3A
:104D800003F2BB68B2FBF3F37B613B68DB88B3F5EE
:104D9000007F0FD17B691A0A13469B0013445B0006
:104DA0001A463B689B68B2FBF3F39BB205339BB298
:104DB000FB6112E07B8C5B011A467B69B3FBF2F26C
:104DC00013469B0013445B001A463B689B68B2FB8A
:104DD000F3F39BB205339BB2FB61FB69224AA2FB52
:104DE0000323DB08FB61FB699BB203F00103BB8477
:104DF000BB8CFA69D31A5B08FB84BB8C1B02BB8497
:104E0000FB8C012B02D9FB8CFF2B03D90223FB84E3
:104E10000023BB843B68DA88BB8C13439AB2FB8CBB
:104E200013439AB27B681A843B681A883B68598896
:104E30003B6898883B689B8903439BB20B439BB2BA
:104E400013439AB27B8B13439BB243F400637B837F
:104E50007B687A8B9A8300BF2C37BD4680BC704735
:104E60000038024000127A00CDCCCCCC80B483B0A4
:104E700000AF78600B46FB70FB78002B08D07B6896
:104E80001B889BB243F040039AB27B681A8007E00C
:104E90007B681B889BB223F040039AB27B681A8020
:104EA00000BF0C37BD4680BC704780B483B000AFF4
:104EB00078600B46FB70FB78002B08D07B689B8BDF
:104EC0009BB243F480639AB27B689A8307E07B6865
:104ED0009B8B9BB223F480639AB27B689A8300BF5A
:104EE0000C37BD4680BC704780B483B000AF78609B
:104EF0000B46FB70FB78002B08D07B681B889BB2AD
:104F000043F400539AB27B681A8007E07B681B88E1
:104F10009BB223F400539AB27B681A8000BF0C370F
:104F2000BD4680BC704780B483B000AF78600B464C
:104F30007B8013467B707B78002B08D07B689B8836
:104F40009AB27B8813439AB27B689A8009E07B68A7
:104F50009B889AB27B88DB439BB213409AB27B68F2
:104F60009A8000BF0C37BD4680BC704780B582B0C8
:104F700000AF78607B68174A93420AD101214FF451
:104F80000010FBF763FF00214FF40010FBF75EFFFA
:104F90001CE07B68104A93420AD101214FF4800043
:104FA000FBF754FF00214FF48000FBF74FFF0DE0AB
:104FB0007B680A4A934209D101214FF40000FBF7B4
:104FC00045FF00214FF40000FBF740FF00BF08370A
:104FD000BD4680BD0054004000580040005C0040C9
:104FE00080B58AB000AF786039600023FB8400236D
:104FF0007B840423BB84574BFB617B689B88FB84C9
:10500000FB8C23F03F03FB8407F10C031846FBF7EE
:10501000FDFD7B69FB61FB694F4AA2FB03239B0CEF
:105020007B84FA8C7B8C1343FB847B68FA8C9A809C
:105030007B681B889BB223F001039AB27B681A80BD
:105040000023FB843B681B68444A934215D83B68A5
:105050001B685B00FA69B2FBF3F3BB84BB8C032BC8
:1050600001D80423BB84FA8CBB8C1343FB847B8C58
:1050700001339AB27B681A8440E03B68DB884BF6C8
:10508000FF72934209D13B681A6813465B001344D0
:10509000FA69B2FBF3F3BB840EE03B681A6813466F
:1050A0009B0013449A001344FA69B2FBF3F3BB84E8
:1050B000BB8C43F48043BB84BB8CC3F30B03002B3A
:1050C00003D1BB8C43F00103BB84BA8CFB8C13432C
:1050D0009BB26FEA43436FEA5343FB847B8C4FF4EC
:1050E000967202FB03F31E4A82FB03129211DB1736
:1050F000D31A9BB201339AB27B681A847B68FA8C0C
:105100009A837B681B889BB243F001039AB27B6849
:105110001A807B681B88FB84FB8C23F4816323F05B
:105120000203FB843B689A883B685B8913439AB20D
:10513000FB8C1343FB847B68FA8C1A803B689A894A
:105140003B681B8913439AB27B681A8100BF2837DA
:10515000BD4680BD00127A0083DE1B43A08601009D
:10516000D34D621080B483B000AF78600B46FB7003
:10517000FB78002B08D07B681B889BB243F00103AF
:105180009AB27B681A8007E07B681B889BB223F089
:1051900001039AB27B681A8000BF0C37BD4680BC01
:1051A000704780B483B000AF78600B46FB70FB782B
:1051B000002B08D07B681B889BB243F480739AB2A3
:1051C0007B681A8007E07B681B889BB223F480739E
:1051D0009AB27B681A8000BF0C37BD4680BC70470E
:1051E00080B483B000AF78600B46FB70FB78002B77
:1051F00008D07B681B889BB243F400739AB27B682B
:105200001A8007E07B681B889BB223F400739AB274
:105210007B681A8000BF0C37BD4680BC704780B4E5
:1052200083B000AF78600B46FB701346BB70BB7851
:10523000002B04D0FB7843F00103FB7003E0FB7804
:1052400023F00103FB70FB789AB27B681A8200BFDF
:105250000C37BD4680BC704780B483B000AF786027
:105260000B46FB70FB78002B08D07B681B889BB239
:1052700043F480639AB27B681A8007E07B681B88DE
:105280009BB223F480639AB27B681A8000BF0C370C
:10529000BD4680BC704780B483B000AF78600B46D9
:1052A000FB70FB789AB27B681A8200BF0C37BD4650
:1052B00080BC704780B483B000AF78607B681B8A85
:1052C0009BB2DBB218460C37BD4680BC704780B439
:1052D00087B000AF7860396000233B610023FB603A
:1052E0000023BB600023FB757B689B8A9BB2FB603D
:1052F0007B681B8B9BB2BB60BB681B04BB60FA68FE
:10530000BB68134323F07F433B613A693B6813401A
:105310003A689A4202D10123FB7501E00023FB7534
:10532000FB7D18461C37BD4680BC704780B487B0F3
:1053300000AF786039600023FB7500233B610023D8
:10534000FB607B68FB603B681B0F3B613B6823F0A5
:105350007F433B603B69002B03D0FB681433FB6049
:1053600005E03B681B0C3B60FB681833FB60FB6887
:105370001A683B681340002B02D00123FB7501E043
:105380000023FB75FB7D18461C37BD4680BC70476B
:1053900080B483B000AF0346FB71FB79002B06D0CD
:1053A000084B1B68074A43F00403136005E0054BF4
:1053B0001B68044A23F00403136000BF0C37BD468A
:1053C00080BC70470008065080B485B000AF78609C
:1053D0000023FB60344BFB607B689B79002B4FD034
:1053E000314B1A687B681B68DB432F4913400B6005
:1053F0002D4B5A687B681B68DB432B4913404B607D
:105400007B681B791A46FB681344FB60FB681968CC
:105410007B681A68FB680A431A60234B9A687B68AA
:105420001B68DB43204913408B601F4BDA687B68A5
:105430001B68DB431C491340CB607B685B79102BF6
:105440000ED1194B9A687B681B68174913438B6010
:10545000154BDA687B681B6813491343CB601DE06A
:10546000114BFB607B685B791A46FB681344FB6059
:10547000FB6819687B681A68FB680A431A600DE0CC
:105480007B681B791A46FB681344FB60FB6819684C
:105490007B681B68DA43FB680A401A6000BF143758
:1054A000BD4680BC704700BF003C014080B485B061
:1054B00000AF78600023FB730023BB600C4B1B68BC
:1054C0007A681340BB600A4B5A697B681340002B13
:1054D00005D0BB68002B02D00123FB7301E0002341
:1054E000FB73FB7B18461437BD4680BC704700BF7A
:1054F000003C014080B483B000AF7860034A7B6811
:10550000536100BF0C37BD4680BC7047003C014072
:1055100080B485B000AF78600023FB730023BB73B9
:105520000F237B737B68DB78002B39D0274BDB683C
:10553000DB431B0ADBB203F00703FB73FB7BC3F106
:105540000403BB737A7BFB7B42FA03F37B737B68B8
:105550005B781A46BB7B02FA03F3FB737B689A788D
:105560007B7B1340DAB2FB7B1343FB73FB7B1B019A
:10557000FB73174A7B681B781344FA7B83F800237C
:105580007B681B7803F01F0311497A68127852096F
:10559000D2B21046012202FA03F341F820300FE0A4
:1055A0007B681B7803F01F0309497A681278520957
:1055B000D2B2104601229A4000F1200341F8232084
:1055C00000BF1437BD4680BC704700BF00ED00E04F
:1055D00000E100E080B483B000AF78607B68042B0A
:1055E00006D1094B1B68084A43F00403136005E029
:1055F000054B1B68044A23F00403136000BF0C37FB
:10560000BD4680BC704700BF10E000E080B485B0AC
:1056100000AF786039600023FB817B681B88FB81C9
:105620007B68284A934213D07B68274A93420FD065
:105630007B68B3F1804F0BD07B68244A934207D03C
:105640007B68234A934203D07B68224A934208D165
:10565000FB8923F07003FB813B685A88FB89134365
:10566000FB817B681C4A93420CD07B681B4A9342A7
:1056700008D0FB8923F44073FB813B681A89FB89BE
:105680001343FB817B68FA891A803B685A687B6800
:10569000DA623B681A887B681A857B68094A9342FC
:1056A00003D07B68084A934204D13B689B7A9AB244
:1056B0007B681A867B6801229A8200BF1437BD4638
:1056C00080BC70470000014000040140000400401D
:1056D00000080040000C0040001000400014004092
:1056E00080B483B000AF786039607B683A685A62F2
:1056F00000BF0C37BD4680BC704780B483B000AF9C
:1057000078600B46FB70FB78002B08D07B681B8809
:105710009BB243F001039AB27B681A8007E07B6872
:105720001B889BB223F001039AB27B681A8000BFEA
:105730000C37BD4680BC704780B483B000AF786042
:105740000B467B8013467B707B78002B08D07B68F0
:105750009B899AB27B8813439AB27B689A8109E04D
:105760007B689B899AB27B88DB439BB213409AB2D9
:105770007B689A8100BF0C37BD4680BC704780B4FF
:1057800085B000AF78600B467B800023FB7300235D
:10579000BB8100237B817B681B8A9AB27B88134084
:1057A000BB817B689B899AB27B8813407B81BB89D4
:1057B000002B05D07B89002B02D00123FB7301E075
:1057C0000023FB73FB7B18461437BD4680BC704733
:1057D00080B483B000AF78600B467B807B88DB436E
:1057E0009AB27B681A8200BF0C37BD4680BC7047F6
:1057F000024B0146186800F003B800BF34040020D3
:105800002DE9F04F01F10B05162D83B0064623D884
:10581000102900F2B98000F097FA10251823022011
:10582000C54F3B44A3F108025C68944200F06681D6
:10583000636823F003032344D4E902515A68E96002
:1058400042F001028D6030465A6000F083FA08345D
:10585000204603B0BDE8F08F35F0070500F19480D5
:10586000A94200F2918000F06FFAB5F5FC7FC0F01C
:1058700083816B0A00F08F80042B00F24681AB0914
:1058800003F1390003F1380CC300AB4F3B44A3F1E3
:1058900008015C68A14206D10CE0002A80F21D815B
:1058A000E468A14206D0636823F003035A1B0F2A61
:1058B000F3DD60463C69DFF894C2644571D06368EB
:1058C00023F003035A1B0F2A00F34481002AC7E97F
:1058D00004CC80F22681B3F5007F80F06981DB087B
:1058E000591C7A6857F83180C4F808804FF0010ECF
:1058F0009B100EFA03F307EBC10E1343AEF108023F
:10590000E2607B6047F83140C8F80C408210012407
:1059100094409C424BD81C4206D120F00300640006
:105920001C4200F10400FAD007EBC009CE468046C5
:10593000DEF80C309E4507D122E1002A80F2298151
:10594000DB689E4500F01C81596821F003014A1B69
:105950000F2AF2DDD3E9028E5C1945F001055D6086
:1059600042F00105C8F80CE03046CEF80880C7E9DF
:105970000444C4E902CC65605A50019300F0EAF98E
:10598000019B03F1080463E700240C2320463360E5
:1059900003B0BDE8F08F4FF4007340204FF03F0C90
:1059A00073E77B688210012494409C42B3D9BC68A1
:1059B000636823F00309A94503D3A9EB05030F2B63
:1059C0007BDC5E4BDFF888A11A68DAF8003001331F
:1059D00005EB020800F0488108F5805808F10F082F
:1059E00028F47F6828F00F084146304600F0B8F9E7
:1059F000B0F1FF3F834600F0048104EB09005845F5
:105A000000F2FD804E4A13684344136000F04D815C
:105A1000DAF8001001311BBFABEB00001B18CAF80D
:105A200000B013601BF0070300F03481C3F10801DC
:105A3000C3F580538B440833D844C8F30B08A3EB59
:105A4000080841463046019200F08AF9431C019A49
:105A500000F04681A0EB0B01414441F001011368C5
:105A6000C7F808B04344BC42CBF80410136015D00B
:105A7000B9F10F0F40F230816068A9F10C0121F0FB
:105A8000070100F0010004EB010C08434FF0050E84
:105A90000F296060CCE901EE00F23A81294A2A48D8
:105AA0001168BC688B42016888BF136062688B42D2
:105AB00022F0030288BF0360A7E0621943F00103EC
:105AC00045F0010565603046BA60536000F042F968
:105AD0000834204603B0BDE8F08F2344E1685A68DB
